:020000040800F2
:10000000D80400209D0100085F0300085B0300087E
:100010005D030008950200084D0B00080000000079
:1000200000000000000000000000000015050008AE
:10003000970200080000000039040008CD05000800
:10004000B7010008B7010008B7010008B7010008B0
:10005000B7010008B7010008B7010008B7010008A0
:10006000B7010008B7010008B7010008B701000890
:10007000B7010008B7010008B7010008B701000880
:10008000B7010008B7010008B7010008B701000870
:10009000B7010008B7010008B7010008B701000860
:1000A000B7010008B7010008B7010008B701000850
:1000B000B701000821060008B7010008B7010008D1
:1000C000B7010008B7010008B7010008B701000830
:1000D000B7010008D90700081D08000861080008DA
:1000E000B7010008B7010008B7010008B701000810
:1000F000B7010008B7010008B7010008B701000800
:10010000B7010008B7010008B7010008B7010008EF
:100110004D07000891070008B7010008B701000863
:10012000B7010008B7010008B7010008B7010008CF
:10013000B7010008B7010008B7010008B7010008BF
:10014000B7010008B7010008B7010008B7010008AF
:10015000B7010008B7010008B7010008A5080008AA
:10016000B7010008B7010008B7010008B70100088F
:10017000B7010008B7010008B7010008B70100087F
:10018000B7010008B7010008DFF80CD000F02AF82A
:10019000004800476D0B0008D8040020064880473F
:1001A00006480047FEE7FEE7FEE7FEE7FEE7FEE75C
:1001B000FEE7FEE7FEE7FEE7D1050008890100083B
:1001C000D2B201E000F8012B491EFBD27047002299
:1001D000F6E710B513460A4604461946FFF7F0FF46
:1001E000204610BD064C074D06E0E06840F00103D4
:1001F00094E8070098471034AC42F6D3FFF7C8FFE5
:10020000900E0008B00E000810B52A212048FFF714
:10021000DEFF1F4823212C2201704421417054210C
:1002200081705521C1700271302141713123837178
:10023000C271017241728272C17201734273817321
:10024000C373027441748174C274017541758275FF
:10025000C175037642768176C176027741778177E0
:10026000C27780F8201080F8213080F8222080F8B2
:10027000231080F8241080F8252080F8261080F8BC
:1002800027100D2180F828100A2180F8291010BDB0
:10029000AC000020FEE77047F0B5002301240327DF
:1002A0000D6804FA03F21540954242D1D0F800C01F
:1002B0005E0007FA06F52CEA050CC0F800C091F8BC
:1002C00004C0D0F800E00CFA06FC4CEA0E0CC0F8B2
:1002D00000C091F804C0BCF1010F02D0BCF1020FC4
:1002E0001FD1D0F808C02CEA050CC0F808C091F85E
:1002F00005C0D0F808E00CFA06FC4CEA0E0CC0F879
:1003000008C0D0F804C02CEA020CC0F804C042684F
:1003100091F806C00CFA03FC1FFA8CFC42EA0C02AE
:100320004260C268AA43C260CA79C568B2402A4323
:10033000C2605B1C102BB3D3F0BD4B07DB0E9A40A1
:10034000C90810B500EB8100016A0F249C40A1434D
:100350000162016A1143016210BDFEE7FEE77047CA
:1003600030B50F22C47801780123FCB1144C246805
:1003700001F1E02104F4E064C4F5E064C4F307246F
:10038000C4F10405E2404478AC408578154025432B
:100390002A0181F80024007800F01F018B404009F9
:1003A000800000F1E020C0F8003130BD01F01F00F6
:1003B00083404809800000F1E020C0F8803130BD62
:1003C0000CED00E002490843024908607047000054
:1003D0000000FA050CED00E02DE9F8434FF4E06071
:1003E000FFF7F0FF1D208DF8000000258DF801506B
:1003F0000A208DF8020001268DF803606846FFF799
:10040000AFFF0B4FDFF82C800024385D8DF8000023
:100410008DF8015018F824008DF802008DF8036063
:100420006846FFF79DFF641C062CEEDBBDE8F883F1
:10043000E20D00085400002070470000044A002923
:10044000116801D0014300E0814311607047000052
:1004500030380240044A0029116801D0014300E00D
:10046000814311607047000040380240044A00296F
:10047000116801D0014300E0814311607047000022
:100480004438024070B5204A1168204C11F00C012C
:1004900004D06610042903D0082903D004601BE0AF
:1004A000066019E01849091F0B68C3F380550B68F3
:1004B00003F03F0315B1B6FBF3F301E0B4FBF3F334
:1004C0000C680968C4F388146343C1F30141491CF3
:1004D0004900B3FBF1F1016011680F2303EA111128
:1004E0000B4B5C5C0168E14041601468072505EA3C
:1004F00094241C5D21FA04F48460126805EA5232E7
:100500009A5CD140C16070BD083802400024F400FC
:100510009C000020704700000CB500202749019086
:1005200000900A6842F480320A604FF4A0630A68BF
:1005300002F400320092019A521C0192009A12B900
:10054000019A9A42F3D10A68920334D501200090AF
:100550001A484030026842F080520260184802682F
:1005600042F4804202601548083002680260026866
:1005700042F400420260026842F4A0520260031F8B
:10058000104A1A600A6842F080720A600A68920192
:10059000FCD50D4A40F205611160016821F00301AC
:1005A0000160016841F0020101600168C1F381014D
:1005B0000229FAD10CBD00900CBD000000380240A9
:1005C0000070004008544007003C024070470000A3
:1005D0000F4810B5016841F0010101600C4A00218B
:1005E0000832116002680B4B1A400260031D0A4A70
:1005F0001A60026822F48022026005480C30016013
:10060000FFF78AFF05494FF00060086010BD000049
:1006100000380240FFFFF6FE1030002408ED00E035
:1006200010B5074C0121204600F03DF810B10549F6
:10063000012008602046BDE81040012100F026B8E6
:1006400000040040100000203EB50D460446012184
:100650000220FFF7FFFE00200194ADF80050074C88
:10066000ADF80200ADF808006946204600F030F809
:1006700001221146204600F022F83EBD0004004051
:100680000121014800F005B800040040C94301827F
:1006900070470029018802D041F0010101E021F0FA
:1006A00001010180704702460020138A92890B42A3
:1006B00002EA010202D0002A00D001207047002A7D
:1006C000828901D00A4300E08A438281704700009A
:1006D00030B50288164B174C98420DD0A0420BD073
:1006E000B0F1804F08D0144DA84205D0134DA84258
:1006F00002D0134DA84203D122F070054A882A4344
:10070000104DA84206D0104DA84203D022F44075E7
:100710000A892A4302804A68C2620A88028598428E
:1007200001D0A04201D1897A01860121818230BDA8
:1007300000000140000401400004004000080040A7
:10074000000C0040001000400014004010B50C4C9C
:100750002021204600F07CF901280BD1204600F032
:10076000EDF9084AC1B21078032804D0064B195499
:10077000401C107010BD05490120086010BD00002C
:10078000004C0040030000200D0000202400002049
:1007900070B5104C2021204600F05AF9012817D1DD
:1007A000204600F0CBF9C5B20521204600F0CAF979
:1007B0008021204600F04CF90028F9D02946204637
:1007C00000F0C0F98021204600F042F90028F9D05D
:1007D00070BD00000050004010B50C4C2021204698
:1007E00000F036F901280BD1204600F0A7F9084A9D
:1007F000C1B21078032804D0064B1954401C107065
:1008000010BD05490120086010BD00000010014026
:1008100000000020040000201800002010B50C4C3F
:100820002021204600F014F901280BD1204600F0C9
:1008300085F9084AC1B21078032804D0064B195430
:10084000401C107010BD05490120086010BD00005B
:100850000044004001000020070000201C00002090
:1008600010B50C4C2021204600F0F2F801280BD1E5
:10087000204600F063F9084AC1B21078032804D07A
:10088000064B1954401C107010BD0549012008602A
:1008900010BD000000480040020000200A000020B7
:1008A0002000002070B5104C2021204600F0D0F828
:1008B000012817D1204600F041F9C5B20621204693
:1008C00000F040F98021204600F0C2F80028F9D05D
:1008D0002946204600F036F98021204600F0B8F87D
:1008E0000028F9D070BD00000014014010B50020B0
:1008F00000F028F8012000F025F8022000F022F88E
:10090000032000F01FF8042000F01CF8052000F080
:1009100019F842F2CF0140F2E730FFF795FEFFF7FA
:100920005BFDBDE81040FFF7ABBEC94301807047D7
:100930000029818902D041F4005101E021F40051E5
:1009400081817047F0B504463F493F48183187B070
:1009500050F8240051F8241008430121FFF76EFDE0
:1009600039487830002C68D0052C66D050F8240027
:100970000121FFF76FFD344D344E243D05F1840015
:100980002A5D30F8141056F82400FFF7D6FC05F164
:10099000900006F1180730F814102A5D57F824006B
:1009A000FFF7CBFC05F15400002550F8240000901F
:1009B00002208DF804008DF806508DF805008DF8A2
:1009C000075056F824006946FFF766FC1E48694642
:1009D000483050F82400009001208DF806008DF872
:1009E000070057F82400FFF757FC4FF4E130ADF84B
:1009F0000C500290ADF80E50ADF81050ADF81450F8
:100A00000C20A6F13005ADF8120055F8240002A91B
:100A100000F03EF855F82400012240F2255100F084
:100A20001EF855F824000121FFF782FF55F8240035
:100A30004021FFF77AFF07B0F0BD50F824000121F4
:100A4000FFF714FD97E70000000E00086C0000207F
:100A50000246002012880A4200D00120704710B5DB
:100A6000C1F3421301F01F040121A140012B07D063
:100A7000022B07D01430002A026805D00A4304E094
:100A80000C30F8E71030F6E78A43026010BD000032
:100A90007FB50446008A0D4620F44051E88808439B
:100AA0002082A08941F20C618843A9882A891143D8
:100AB0006A8902431143A181A08A20F44071A88968
:100AC0000843A0826846FFF7DDFC1A48844202D042
:100AD0001948844201D1039800E00298A1890904D1
:100AE00000EBC00101EB0010296801D5490000E0CE
:100AF0008900B0FBF1F26420B2FBF0F109010B09AF
:100B00006FF018056B4302EB8302A3891D044FF0BD
:100B1000320306D503EBC202B2FBF0F000F007008F
:100B200005E003EB0212B2FBF0F000F00F00084307
:100B300020817FBD00100140001401408088C0F377
:100B400008007047C1F3080181807047FEE702E0AA
:100B500008C8121F08C1002AFAD170477047002048
:100B600001E001C1121F002AFBD17047FFF74CFBC7
:100B7000FFF7BCFEDFF83CB2DFF83CA2DFF83C82B6
:100B80008F4E00254FF00A09ABF1040420690128BB
:100B9000FCD12561606978281BD0401C6061142855
:100BA00019D0282852D03C287DD050287CD06428E9
:100BB000ECD10027304618F80710FFF7C3FF80215B
:100BC0003046FFF745FF0028F9D07F1C2A2FF1DBC4
:100BD000DCE76561DAE7A06901282BD1A561257002
:100BE0009BF800005946303088F806009BF8010059
:100BF0004246642801D363204870C3B24846B3FB21
:100C0000F0F730371772B3FBF0F709FB17333033C7
:100C100053728B78642B01D363238B70D9B2B1FBF1
:100C2000F0F33033D372B1FBF0F309FB1310303023
:100C300088F80C00552157465046FFF783FF802166
:100C40003846FFF705FF0028F9D09FE7E069012843
:100C50002DD15848E561C01C65700178424630319D
:100C600088F80F104178642901D363214170CBB219
:100C70004946B3FBF1F730375774B3FBF1F709FB83
:100C80001733303393748378642B01D363238370D9
:100C9000D8B2B0FBF1F330331375B0FBF1F309FBBD
:100CA0001300303001E00EE047E088F81500454FB2
:100CB00055213846FFF746FF80213846FFF7C8FE2A
:100CC0000028F9D062E7206A01282AD13948256234
:100CD000801DA57001784246303188F8181041789F
:100CE000642901D363214170CBB24946B3FBF1F7CC
:100CF00030379776B3FBF1F709FB17333033D376F0
:100D00008378642B01D363238370D8B2B0FBF1F3F3
:100D100030335377B0FBF1F309FB1300303088F820
:100D20001E00294F55213846FFF70CFF8021384619
:100D3000FFF78EFE0028F9D028E7606A01282DD140
:100D40001C4865620930E57001784246303188F808
:100D500021104178642901D363214170CBB2494607
:100D6000B3FBF1F7303782F82370B3FBF1F709FBDF
:100D70001733303382F824308378642B01D3632314
:100D80008370D8B2B0FBF1F3303382F82630B0FB79
:100D9000F1F309FB1300303088F827000B4F552181
:100DA0003846FFF7CFFE80213846FFF751FE002876
:100DB000F9D0EBE60400002000100140AC00002058
:100DC000005000400044004000480040004C0040FB
:100DD00000000600010001000100000007070708ED
:100DE00008082526273435470010002000400080E1
:100DF00008000000080000000800000008000000D3
:100E000002000000010000000200000004000000D9
:100E100004000000040000000200000001000000C7
:100E200002000000040000000800000004000000B0
:100E30004000000004000000000400000004000066
:100E400000100000400000008000000008000000CA
:100E500000080000000800000400000080000000FE
:100E6000060002000A000A000C000600070003004A
:100E70000B000B0002000700100000000000020041
:100E80000000040000000800000010002000000026
:100E9000B00E000800000020AC0000004E0B00085F
:100EA0005C0F0008AC0000202C0400005E0B000862
:100EB0000000000000000000000000000000000032
:100EC0000000000000000000000000000000000022
:100ED000000000000000000000000240000C024082
:100EE000000C0240000C0240000C024000100140C7
:100EF0000044004000480040004C004000500040CA
:100F00000014014001000000020000000300000086
:100F1000040000000500000006000000000402407C
:100F200000000240000402400008024000080240A5
:100F30000008024000040240000002400004024099
:100F400000080240000C02400008024000000000BF
:0C0F500001020304010203040607080963
:040000050800018965
:00000001FF
